{
    "contractName": "HelloBlockchain",
    "abi": [
        {
            "inputs": [
                {
                    "internalType": "string",
                    "name": "message",
                    "type": "string"
                }
            ],
            "stateMutability": "nonpayable",
            "type": "constructor"
        },
        {
            "anonymous": false,
            "inputs": [
                {
                    "indexed": false,
                    "internalType": "string",
                    "name": "stateData",
                    "type": "string"
                }
            ],
            "name": "StateChanged",
            "type": "event"
        },
        {
            "inputs": [],
            "name": "RequestMessage",
            "outputs": [
                {
                    "internalType": "string",
                    "name": "",
                    "type": "string"
                }
            ],
            "stateMutability": "view",
            "type": "function"
        },
        {
            "inputs": [],
            "name": "Requestor",
            "outputs": [
                {
                    "internalType": "address",
                    "name": "",
                    "type": "address"
                }
            ],
            "stateMutability": "view",
            "type": "function"
        },
        {
            "inputs": [],
            "name": "Responder",
            "outputs": [
                {
                    "internalType": "address",
                    "name": "",
                    "type": "address"
                }
            ],
            "stateMutability": "view",
            "type": "function"
        },
        {
            "inputs": [],
            "name": "ResponseMessage",
            "outputs": [
                {
                    "internalType": "string",
                    "name": "",
                    "type": "string"
                }
            ],
            "stateMutability": "view",
            "type": "function"
        },
        {
            "inputs": [
                {
                    "internalType": "string",
                    "name": "requestMessage",
                    "type": "string"
                }
            ],
            "name": "SendRequest",
            "outputs": [],
            "stateMutability": "nonpayable",
            "type": "function"
        },
        {
            "inputs": [
                {
                    "internalType": "string",
                    "name": "responseMessage",
                    "type": "string"
                }
            ],
            "name": "SendResponse",
            "outputs": [],
            "stateMutability": "nonpayable",
            "type": "function"
        },
        {
            "inputs": [],
            "name": "State",
            "outputs": [
                {
                    "internalType": "enum HelloBlockchain.StateType",
                    "name": "",
                    "type": "uint8"
                }
            ],
            "stateMutability": "view",
            "type": "function"
        }
    ],
    "bytecode": "608060405234801561001057600080fd5b5060405161073538038061073583398101604081905261002f91610136565b805161004290600290602084019061009d565b506000805460ff191690556040805160208082526007908201526614995c5d595cdd60ca1b8183015290517f8fbf346523616c015d34c71713ea41bb98008282341b0f191f578d20d7ed26e29181900360600190a150610256565b8280546100a990610205565b90600052602060002090601f0160209004810192826100cb5760008555610111565b82601f106100e457805160ff1916838001178555610111565b82800160010185558215610111579182015b828111156101115782518255916020019190600101906100f6565b5061011d929150610121565b5090565b5b8082111561011d5760008155600101610122565b6000602080838503121561014957600080fd5b82516001600160401b038082111561016057600080fd5b818501915085601f83011261017457600080fd5b81518181111561018657610186610240565b604051601f8201601f19908116603f011681019083821181831017156101ae576101ae610240565b8160405282815288868487010111156101c657600080fd5b600093505b828410156101e857848401860151818501870152928501926101cb565b828411156101f95760008684830101525b98975050505050505050565b600181811c9082168061021957607f821691505b6020821081141561023a57634e487b7160e01b600052602260045260246000fd5b50919050565b634e487b7160e01b600052604160045260246000fd5b6104d0806102656000396000f3fe608060405234801561001057600080fd5b506004361061007d5760003560e01c8063d181ada11161005b578063d181ada1146100c8578063e750e2da146100f3578063f1b6dccd146100fb578063fd05116c1461011557600080fd5b80635ab28ecb14610082578063829c2d6d146100a0578063a7a1ba15146100b5575b600080fd5b61008a61012d565b60405161009791906103f4565b60405180910390f35b6100b36100ae36600461031b565b6101bb565b005b6100b36100c336600461031b565b61023d565b6001546100db906001600160a01b031681565b6040516001600160a01b039091168152602001610097565b61008a610275565b6000546101089060ff1681565b60405161009791906103cc565b6000546100db9061010090046001600160a01b031681565b6003805461013a90610449565b80601f016020809104026020016040519081016040528092919081815260200182805461016690610449565b80156101b35780601f10610188576101008083540402835291602001916101b3565b820191906000526020600020905b81548152906001019060200180831161019657829003601f168201915b505050505081565b600180546001600160a01b0319163317905580516101e0906003906020840190610282565b506000805460ff1916600117905560408051602080825260089082015267526573706f6e736560c01b8183015290517f8fbf346523616c015d34c71713ea41bb98008282341b0f191f578d20d7ed26e2916060908290030190a150565b60008054610100600160a81b03191633610100021790558051610267906002906020840190610282565b50506000805460ff19169055565b6002805461013a90610449565b82805461028e90610449565b90600052602060002090601f0160209004810192826102b057600085556102f6565b82601f106102c957805160ff19168380011785556102f6565b828001600101855582156102f6579182015b828111156102f65782518255916020019190600101906102db565b50610302929150610306565b5090565b5b808211156103025760008155600101610307565b60006020828403121561032d57600080fd5b813567ffffffffffffffff8082111561034557600080fd5b818401915084601f83011261035957600080fd5b81358181111561036b5761036b610484565b604051601f8201601f19908116603f0116810190838211818310171561039357610393610484565b816040528281528760208487010111156103ac57600080fd5b826020860160208301376000928101602001929092525095945050505050565b60208101600283106103ee57634e487b7160e01b600052602160045260246000fd5b91905290565b600060208083528351808285015260005b8181101561042157858101830151858201604001528201610405565b81811115610433576000604083870101525b50601f01601f1916929092016040019392505050565b600181811c9082168061045d57607f821691505b6020821081141561047e57634e487b7160e01b600052602260045260246000fd5b50919050565b634e487b7160e01b600052604160045260246000fdfea264697066735822122052ddb7e93f3009976be6efea26e627c51d0f252d9c62a36f21678d30a1290f6b64736f6c63430008070033",
    "sourcePath": "c:/Users/Usuario/dev_ETHBlockChain_Solidity/first_steps/contracts/HelloBlockchain.sol",
    "compiler": {
        "name": "solc",
        "version": "0.8.7+commit.e28d00a7"
    },
    "functionHashes": {
        "RequestMessage()": "e750e2da",
        "Requestor()": "fd05116c",
        "Responder()": "d181ada1",
        "ResponseMessage()": "5ab28ecb",
        "SendRequest(string)": "a7a1ba15",
        "SendResponse(string)": "829c2d6d",
        "State()": "f1b6dccd"
    },
    "gasEstimates": {
        "creation": {
            "codeDepositCost": "246400",
            "executionCost": "infinite",
            "totalCost": "infinite"
        },
        "external": {
            "RequestMessage()": "infinite",
            "Requestor()": "2414",
            "Responder()": "2337",
            "ResponseMessage()": "infinite",
            "SendRequest(string)": "infinite",
            "SendResponse(string)": "infinite",
            "State()": "2395"
        }
    }
}